:020000040800F2
:100000001004002005010008090100080B01000888
:100010000D0100080F010008110100080000000098
:1000200000000000000000000000000013010008B4
:100030001501000800000000170100081901000860
:100040001B0100081B0100081B0100081B01000820
:100050001B0100081B0100081B0100081B01000810
:100060001B0100081B0100081B0100081B01000800
:100070001B0100081B0100081B0100081B010008F0
:100080001B0100081B0100081B0100081B010008E0
:100090001B0100081B0100081B0100081B010008D0
:1000A0001B0100081B0100081B0100081B010008C0
:1000B0001B0100081B0100081B0100081B010008B0
:1000C0001B0100081B0100081B0100081B010008A0
:1000D0001B0100081B0100081B0100081B01000890
:1000E0001B0100081B0100081B010008DFF810D0ED
:1000F00000F016F8004800477D020008AFF30080CA
:100100001004002005480047FEE7FEE7FEE7FEE793
:10011000FEE7FEE7FEE7FEE7FEE7FEE7ED0000088C
:10012000064C074D06E0E06840F0010394E8070044
:1001300098471034AC42F6D3FFF7DCFFBC0300084D
:10014000DC030008F0B5CC78002204F00F03E406CD
:1001500001D58C7823430C784FF00F0C14F0FF0F6F
:100160004FF0010E1BD005680E880EFA02F42640EF
:10017000A64210D196000CFA06F725EA070703FA03
:1001800006F5CE783D43282E02D0482E02D002E05C
:10019000446100E00461521C082AE5D305600A8826
:1001A000FF2A1CD94468002202F108060EFA06F55F
:1001B0000E882E40AE420ED196000CFA06F7BC43D4
:1001C00003FA06F7CE783C43282E00D14561CE785D
:1001D000482E00D10561521C082AE5D34460F0BDC9
:1001E0000246002092680A4200D0012070470AB1FE
:1001F0000161704741617047044A0029916901D04B
:10020000014300E08143916170470000001002400B
:1002100002E008C8121F08C1002AFAD170477047CF
:10022000002001E001C1121F002AFBD17047704776
:10023000704700000449016004494160044981603D
:100240000449C16070470000990200088903000852
:10025000590300082F020008044901600449416065
:10026000044981600449C16070470000210300080F
:10027000A903000883030008310200088EB00AA811
:10028000FFF7EAFF0A9A6946002090470B9A04217B
:1002900068469047FAE7000070B50C460546002610
:1002A00038E005EB4600042241781C4B09098A40DE
:1002B00022604178090903EB81216160407800F0F8
:1002C0000F010120884020810320A072287810F0BF
:1002D000030008D0012802D0022804D101E0142034
:1002E00000E01020E072287800F0C000042802D05E
:1002F000082804D101E0482000E02820E072012114
:100300001046FFF779FF04F108016068FFF71AFF54
:10031000761CF6B2E878B042C3D870BD0008014040
:1003200010B50C460B4900EB400001EB800007C8FC
:1003300084E8070004F11800FFF77CFFA26904F1CC
:100340000C01204690472046BDE81040002100F0F7
:100350002BB800000000002010B5C27A0C46142A09
:1003600008D0102A06D0482A04D0282A02D04FF0FC
:10037000FF3010BD01894068FFF732FF40B22070A6
:1003800010BD026A0C30104710B5CAB2C17A002401
:10039000142904D0102902D0641E204610BD018902
:1003A0004068FFF724FFF8E782780AB919B1002105
:1003B000C2690C3010470121FAE70000DC03000895
:1003C000000000200C00000010020008E8030008F4
:1003D0000C0000200404000020020008022D00018F
:0803E000000000000000000015
:04000005080000ED02
:00000001FF
